:100000000C94FA000C9420010C9420010C94200113
:100010000C9420010C9420010C9420010C942001DC
:100020000C9420010C9420010C9420010C942001CC
:100030000C9420010C9420010C9420010C942001BC
:100040000C9420010C9420010C9420010C942001AC
:100050000C9420010C9420010C9420010C9420019C
:100060000C9420010C9420010C9420010C9420018C
:100070000C9420010C9420010C9420010C9420017C
:100080000C9420010C9420010C9420010C9420016C
:100090000C9420010C9420010C9420010C9420015C
:1000A0000C9420010C9420010C9420010C9420014C
:1000B0000C9420010C9420010C9420010C9420013C
:1000C0000C9420010C9420010C9420010C9420012C
:1000D0000C9420010C9420010C9420010C9420011C
:1000E0000C9420010C9420010C9420010C9420010C
:1000F0000C9420010C9420010C9420010C942001FC
:100100000C9420010C9420010C9420010C942001EB
:100110000C9420010C9420010C9420010C942001DB
:100120000C9420010C9420010C9420010C942001CB
:100130000C9420010C94DD020C9420010C942001FD
:100140000C9420010C9420010C9420010C942001AB
:100150000C9420010C9420010C9420010C9420019B
:100160000C9420010C9420010C9420010C9420018B
:100170000C9420010C9420010C9420010C9420017B
:100180000C9420010C9420010C9420010C9420016B
:100190000C9420010C9420010C9420010C9420015B
:1001A0000C9420010C9420010C9420010C9420014B
:1001B0000C9420010C9420010C9420010C9420013B
:1001C0000C9420010C9420010C9420010C9420012B
:1001D0000C9420010C9420010C9420010C9420011B
:1001E0000C9420010C9420010C9420010C9420010B
:1001F0000C94200111241FBECFEFDFE3DEBFCDBF83
:1002000000E00CBF18BE19BE1ABE1BBE10E2A0E073
:10021000B0E2EAE5F6E000E00BBF02C007900D9205
:10022000AA30B107D9F71BBE20E2AAE0B0E201C0B4
:100230001D92A63FB207E1F70E9422030C942B0304
:100240000C940000AF92CF92EF920F93FC01608369
:100250007183428353831482CC2011F090E801C053
:1002600090E0222311F080E201C080E000650A29BD
:10027000092B082BDB010C93A081B1811196EC9224
:10028000158216820280F381E02D80EA81830F912E
:10029000EF90CF90AF900895AF92CF92EF920F93DF
:1002A000CF93DF93E0EAF6E0C0E1C183D8E3D48BDB
:1002B000C5830F2EF3E0AF2EF02DC12CE12C00E012
:1002C00020E040EA56E060EC7BE08EE090E20E94A5
:1002D0002201E0ECFBE01382E0E8F6E0C183D48B7E
:1002E000C5836894AA24A1F820E040E856E060ECB9
:1002F0007AE087EB90E20E942201E0ECFAE01382C0
:10030000DF91CF910F91EF90CF90AF900895E0ECF7
:10031000FBE0838382818823ECF7E0ECFBE08381C0
:100320000895E0ECFAE0838382818823ECF7E0EC27
:10033000FAE083810895BF92CF92DF92EF92FF920D
:100340000F931F93CF93DF930F2EF0E8EF2EF6E07D
:10035000FF2EF02D6894BB24B4F8F701B6828FEF1E
:100360000E9491018FEF0E94910107EA10E2F801CB
:1003700081810E949101D82FF0E0CF2FF801C08336
:10038000D18380E00E949101C80FD11DF801C08384
:10039000D1830F2EF3E2CF2EF0E2DF2EF02DF60107
:1003A00081810E949101D82FF0E0CF2F07E210E267
:1003B000F801C083D183F60180810E949101C80FAA
:1003C000D11DF801C083D1830F2EF5E5CF2EF0E2C9
:1003D000DF2EF02DF60181810E949101D82FF0E0EF
:1003E000CF2F09E510E2F801C083D183F6018081A7
:1003F0000E949101C80FD11DF801C083D1830F2E37
:10040000FCECCF2EF0E2DF2EF02DF60181810E9470
:100410009101D82FF0E0CF2F00ED10E2F801C0835A
:10042000D183F60180810E949101C80FD11DF8018E
:10043000C083D183F701B582DF91CF911F910F91D6
:10044000FF90EF90DF90CF90BF9008950F931F9390
:10045000CF93DF93C0EAD6E010E11E8380E00E94D4
:10046000870182E60E94870180E00E948701082FB1
:1004700080E00E948701302F20E0282B209323204A
:100480003093242080E00E948701082F83E60E9499
:100490008701302F20E0282B2093552030935620C1
:1004A00080E00E948701082F80E00E948701302FA2
:1004B00020E0282B2093CC203093CD2080E00E9498
:1004C000870180E00E9487011D83DF91CF911F91FA
:1004D0000F910895E0EBF9E0918195FFFDCF8093B6
:1004E000B0090895CF93DF93EC018D2F90E00E9427
:1004F0006A02CE0199270E946A02DF91CF91089586
:100500008FEF9FEF0E9472028091A7209091A82008
:100510000E94720280912720909128200E947202EE
:100520008091592090915A200E9472028091D0208F
:100530009091D1200E94720208950E94260280911B
:10054000F0209091F12001968093F0209093F1207B
:100550004E9744F00E949B010E9480021092F0206E
:100560001092F1200895E0E6F6E090E4928380E8AE
:100570008183E0E4F6E092838183E0EBF9E08BE0B5
:10058000858387E1868384EA87838481806184838D
:100590008481886084830895E0E0F9E083E08083CB
:1005A00011828FE992E986A397A381E08683E0EA2E
:1005B000F0E082818160828308951F920F920FB6CE
:1005C0000F92112408B60F9218BE09B60F9219BEE9
:1005D0000BB60F921BBE2F933F934F935F936F9376
:1005E0007F938F939F93AF93BF93EF93FF930E945B
:1005F0009D02E0E0F9E010A211A2FF91EF91BF91FE
:10060000AF919F918F917F916F915F914F913F91AA
:100610002F910F900BBE0F9009BE0F9008BE0F9048
:100620000FBE0F901F901895E0E5F0E0808182608A
:100630008083818181FFFDCF88ED84BF81E080933D
:10064000400008950E9414030E94B3020E944C01CE
:0A0650000E94CC02FFCFF894FFCF08
:0A065A0001FFFFFFFF8006A006006D
:00000001FF
