S0100000554D365F746573742E737265631D
S11300000C94FA000C9420010C9420010C9420010F
S11300100C9420010C9420010C9420010C942001D8
S11300200C9420010C9420010C9420010C942001C8
S11300300C9420010C9420010C9420010C942001B8
S11300400C9420010C9420010C9420010C942001A8
S11300500C9420010C9420010C9420010C94200198
S11300600C9420010C9420010C9420010C94200188
S11300700C9420010C9420010C9420010C94200178
S11300800C9420010C9420010C9420010C94200168
S11300900C9420010C9420010C9420010C94200158
S11300A00C9420010C9420010C9420010C94200148
S11300B00C9420010C9420010C9420010C94200138
S11300C00C9420010C9420010C9420010C94200128
S11300D00C9420010C9420010C9420010C94200118
S11300E00C9420010C9420010C9420010C94200108
S11300F00C9420010C9420010C9420010C942001F8
S11301000C9420010C9420010C9420010C942001E7
S11301100C9420010C9420010C9420010C942001D7
S11301200C9420010C9420010C9420010C942001C7
S11301300C9420010C948D030C9420010C94200148
S11301400C9420010C9420010C9420010C942001A7
S11301500C9420010C9420010C9420010C94200197
S11301600C9420010C9420010C9420010C94200187
S11301700C9420010C9420010C9420010C94200177
S11301800C9420010C9420010C9420010C94200167
S11301900C9420010C9420010C9420010C94200157
S11301A00C9420010C9420010C9420010C94200147
S11301B00C9420010C9420010C9420010C94200137
S11301C00C9420010C9420010C9420010C94200127
S11301D00C9420010C9420010C9420010C94200117
S11301E00C9420010C9420010C9420010C94200107
S11301F00C94200111241FBECFEFDFE3DEBFCDBF7F
S113020000E00CBF18BE19BE1ABE1BBE10E2A0E06F
S1130210B0E2ECE8F7E000E00BBF02C007900D92FB
S1130220AA30B107D9F71BBE21E2AAE0B0E201C0AF
S11302301D92AD30B207E1F70E9455030C94C4033C
S11302400C940000AF92CF92EF920F93FC01608365
S11302507183428353831482CC2011F090E801C04F
S113026090E0222311F080E201C080E000650A29B9
S1130270092B082BDB010C93A081B1811196EC9220
S1130280158216820280F381E02D80EA81830F912A
S1130290EF90CF90AF900895AF92CF92EF920F93DB
S11302A0CF93DF93E0EAF6E0C0E1C183D8E3D48BD7
S11302B0C5830F2EF3E0AF2EF02DC12CE12C00E00E
S11302C020E040EA56E060EC7BE084E390E20E94A8
S11302D02201E0E8F6E0C183D48BC58320E040E846
S11302E056E060EC7AE080ED90E20E942201DF911A
S11302F0CF910F91EF90CF90AF900895E0ECFBE099
S1130300838382818823ECF7E0ECFBE0838108950A
S1130310E0ECFAE0838382818823ECF7E0ECFAE0F6
S11303208381089581E00E947E018CEA0E947E010F
S1130330089581E00E947E018FEA0E947E01089563
S1130340FC012081207F622B60830895E0E0F8E0C7
S113035083E080838183828383838181806181833D
S113036081818062818381818064818381818068CD
S113037081838FE0A0E4B6E011968C9310AE11AEA9
S113038012AE13AE14AE15AE10923E0810923F0892
S113039089E298E686A397A363E080E098E00E9450
S11303A0A0010895FC0120812068208308958F9284
S11303B0AF92BF92CF92EF920F931F93CF93DF939D
S11303C0CDB7DEB7FC016087718712860487158775
S11303D01686422BE42ACE28C282A482B58280816A
S11303E08C7D88299E85992329F0806280838D8560
S11303F0868301C08083DF91CF911F910F91EF908D
S1130400CF90BF90AF908F900895FC01208124601D
S113041020830895FC0163830895DF92EF92FF9295
S11304200F931F93CF93DF930F2EF0EAEF2EF6E096
S1130430FF2EF02D6894DD24D4F8F701D68280E0F5
S11304400E947E0182E60E947E01C9E4D0E2188106
S113045000E080E00E947E01080F111D08831983CB
S113046080E00E947E01102F0027080F111D0883D1
S11304701983CAE7D0E2188100E080E00E947E017F
S1130480080F111D0883198383E60E947E01102F33
S11304900027080F111D08831983C5EED0E21881C7
S11304A000E080E00E947E01080F111D088319837B
S11304B080E00E947E01102F0027080F111D088381
S11304C0198380E00E947E0180E00E947E01F70192
S11304D0D582DF91CF911F910F91FF90EF90DF9024
S11304E00895FF920F931F93CF93DF93C0E8D6E054
S11304F06894FF24F4F8FE8209E410E2F801818193
S11305000E948801F80180810E9488010AE710E2B4
S1130510F80181810E948801F80180810E9488018C
S113052005EE10E2F80181810E948801F8018081C2
S11305300E94880180E00E948801FD82DF91CF91B2
S11305401F910F91FF9008950E940D028091072141
S113055090910821019680930721909308210A978E
S113056034F00E947102109207211092082108951C
S1130570E0E5F0E0808182608083818181FFFDCFAE
S113058088ED84BF81E0809340000895E0E6F6E0C2
S113059090E4928380E88183E0E4F6E092838183AF
S11305A0E0EBF9E08BE0858387E1868384EA878347
S11305B08481806184838481886084830895109217
S11305C0DF201092E0201092E1201092E22010929D
S11305D0E3201092E42084E690E0809374209093CA
S11305E07520809376209093772080937820909341
S11305F079201092432010924420109245201092AA
S11306004620109247201092482080933D209093DA
S11306103E2080933F2090934020809341209093EC
S1130620422008958F92AF92BF92CF92EF920F9390
S11306301F9381E08F931F92882483946894AA2443
S1130640A5F8B12CCC24C3946894EE24E2F800E11C
S113065010E220E040E060EB79E080E291E00E946B
S1130660D70180E291E00E9405026EE680E291E00B
S11306700E940A020F900F901F910F91EF90CF905C
S1130680BF90AF908F900895E0E0F9E083E080831D
S1130690118280E09DE786A397A381E08683E0EA48
S11306A0F0E082818160828308958FEFE0E0F6E0DC
S11306B081830E94B8020E94C6020E944C010E94DB
S11306C0DF020E94A6010E94C6020E9492012FEF3F
S11306D037EA81E6215030408040E1F700C0000055
S11306E00E9499019FEF23E234EF80E09150204073
S11306F030408040D9F700C00000E0E0F1E08081A4
S1130700806880830E94120380E291E00E94D201FB
S11307100E94440378940000FECF1F920F920FB6FC
S11307200F92112408B60F9218BE09B60F9219BE83
S11307300BB60F921BBE2F933F934F935F936F9310
S11307407F938F939F93AF93BF93EF93FF930E94F5
S1130750A402E0E0F9E010A211A2FF91EF91BF9191
S1130760AF919F918F917F916F915F914F913F9145
S11307702F910F900BBE0F9009BE0F9008BE0F90E3
S10F07800FBE0F901F901895F894FFCF47
S10D078C01FFFFFFFF8006A0060036
S9030000FC
