:100000000C94FA000C9420010C9420010C94200113
:100010000C9420010C9420010C9420010C942001DC
:100020000C9420010C9420010C9420010C942001CC
:100030000C9420010C9420010C9420010C942001BC
:100040000C9420010C9420010C9420010C942001AC
:100050000C9420010C9420010C9420010C9420019C
:100060000C9420010C9420010C9420010C9420018C
:100070000C9420010C9420010C9420010C9420017C
:100080000C9420010C9420010C9420010C9420016C
:100090000C9420010C9420010C9420010C9420015C
:1000A0000C9420010C9420010C9420010C9420014C
:1000B0000C9420010C9420010C9420010C9420013C
:1000C0000C9420010C9420010C9420010C9420012C
:1000D0000C9420010C9420010C9420010C9420011C
:1000E0000C9420010C9420010C9420010C9420010C
:1000F0000C9420010C9420010C9420010C942001FC
:100100000C9420010C9420010C9420010C942001EB
:100110000C9420010C9420010C9420010C942001DB
:100120000C9420010C9420010C9420010C942001CB
:100130000C9420010C9472030C9420010C94200167
:100140000C9420010C9420010C9420010C942001AB
:100150000C9420010C9420010C9420010C9420019B
:100160000C9420010C9420010C9420010C9420018B
:100170000C9420010C9420010C9420010C9420017B
:100180000C9420010C9420010C9420010C9420016B
:100190000C9420010C9420010C9420010C9420015B
:1001A0000C9420010C9420010C9420010C9420014B
:1001B0000C9420010C9420010C9420010C9420013B
:1001C0000C9420010C9420010C9420010C9420012B
:1001D0000C9420010C9420010C9420010C9420011B
:1001E0000C9420010C9420010C9420010C9420010B
:1001F0000C94200111241FBECFEFDFE3DEBFCDBF83
:1002000000E00CBF18BE19BE1ABE1BBE10E2A0E073
:10021000B0E2E6E5F7E000E00BBF02C007900D9208
:10022000AA30B107D9F71BBE21E2AAE0B0E201C0B3
:100230001D92AF30B207E1F70E9445030C94A90369
:100240000C940000AF92CF92EF920F93FC01608369
:100250007183428353831482CC2011F090E801C053
:1002600090E0222311F080E201C080E000650A29BD
:10027000092B082BDB010C93A081B1811196EC9224
:10028000158216820280F381E02D80EA81830F912E
:10029000EF90CF90AF900895AF92CF92EF920F93DF
:1002A000CF93DF93E0EAF6E0C0E1C183D8E3D48BDB
:1002B000C5836894AA24A1F8C12CE12C00E020E0B9
:1002C00040EA56E060EC7BE08EE090E20E94220182
:1002D000E0E8F6E0C183D48BC58320E040E856E037
:1002E00060EC7AE080ED90E20E942201DF91CF91F4
:1002F0000F91EF90CF90AF900895E0ECFBE08383F7
:1003000082818823ECF7E0ECFBE083810895E0EC48
:10031000FAE0838382818823ECF7E0ECFAE08381C2
:10032000089581E00E947D018CEA0E947D0108957C
:1003300081E00E947D018FEA0E947D010895FC0109
:100340002081207F622B60830895E0E0F8E083E065
:1003500080838183828383838181806181838181A2
:1003600080628183818180648183818180688183CF
:100370008FE0A0E4B6E011968C9310AE11AE12AEF1
:1003800013AE14AE15AE10923E0810923F0889E2EB
:1003900098E686A397A363E080E098E00E949F011F
:1003A00008950F931F93CF93DF93C0EAD6E010E137
:1003B0001E8380E00E947D0182E60E947D0180E034
:1003C0000E947D01082F80E00E947D01302F20E0F7
:1003D000282B209323203093242080E00E947D014D
:1003E000082F83E60E947D01302F20E0282B2093E8
:1003F00056203093572080E00E947D01082F80E036
:100400000E947D01302F20E0282B2093E52030939F
:10041000E62080E00E947D0180E00E947D011D8336
:10042000DF91CF911F910F9108958F929F92AF927C
:10043000BF92DF92EF92FF920F931F93CF93DF93C0
:100440000F2EF0E8EF2EF6E0FF2EF02D6894DD245D
:10045000D4F8F701D682C8EBD0E280E090E1A0E0CA
:10046000B0E088839983AA83BB830F2EF8EAAF2E6E
:10047000F0E2BF2EF02DF50181810E948701182F37
:1004800000E0F5010083118380E00E948701080FDE
:10049000111DF501008311830F2EF3E28F2EF0E280
:1004A0009F2EF02DF40181810E948701182F00E01A
:1004B0000F2EF7E2AF2EF0E2BF2EF02DF5010083F4
:1004C0001183F40180810E948701080F111DF5013D
:1004D000008311830F2EF6E58F2EF0E29F2EF02D74
:1004E000F40181810E948701182F00E00F2EFAE5A8
:1004F000AF2EF0E2BF2EF02DF50100831183F40141
:1005000080810E948701080F111DF501008311836E
:100510000F2EF5EE8F2EF0E29F2EF02DF40181814B
:100520000E948701182F00E00F2EF9EEAF2EF0E2A7
:10053000BF2EF02DF50100831183F40180810E940C
:100540008701080F111DF501008311838B810E9423
:1005500087018A810E94870189810E9487018881A1
:100560000E9487018CEC0E9487018CEC0E9487011D
:10057000F701D582DF91CF911F910F91FF90EF90FE
:10058000DF90BF90AF909F908F9008950E94D1010F
:100590008091092190910A210196809309219093DD
:1005A0000A21079734F00E94150210920921109237
:1005B0000A210895E0E5F0E08081826080838181F6
:1005C00081FFFDCF88ED84BF81E0809340000895D6
:1005D000E0E6F6E090E4928380E88183E0E4F6E0F0
:1005E00092838183E0EBF9E08BE0858387E186836A
:1005F00084EA8783848180618483848188608483A2
:1006000008951092DF201092E0201092E1201092C5
:10061000E2201092E3201092E42084E690E08093A0
:100620005020909351208093522090935320809398
:1006300054209093552010921D2010921E2010924D
:100640001F201092202010922120109222208093AF
:100650001720909318208093192090931A2080934C
:100660001B2090931C200895E0E0F9E083E0808354
:1006700011828FE992E986A397A381E08683E0EA5D
:10068000F0E082818160828308958FEFE0E0F6E000
:1006900081830E94DA020E94E8020E944C010E94BB
:1006A00001030E94A5010E94E8020E9491012FEF20
:1006B00037EA81E6215030408040E1F700C0000079
:1006C0000E9498019FEF23E234EF80E09150204098
:1006D00030408040D9F700C000000E943403789475
:1006E0000000FECF1F920F920FB60F92112408B692
:1006F0000F9218BE09B60F9219BE0BB60F921BBE11
:100700002F933F934F935F936F937F938F939F9319
:10071000AF93BF93EF93FF930E94C602E0E0F9E02E
:1007200010A211A2FF91EF91BF91AF919F918F9174
:100730007F916F915F914F913F912F910F900BBEE1
:100740000F9009BE0F9008BE0F900FBE0F901F9024
:060750001895F894FFCF9C
:0A07560001FFFFFFFF8006A0060070
:00000001FF
