S0100000554D365F746573742E737265631D
S11300000C94FA000C9420010C9420010C9420010F
S11300100C9420010C9420010C9420010C942001D8
S11300200C9420010C9420010C9420010C942001C8
S11300300C9420010C9420010C9420010C942001B8
S11300400C9420010C9420010C9420010C942001A8
S11300500C9420010C9420010C9420010C94200198
S11300600C9420010C9420010C9420010C94200188
S11300700C9420010C9420010C9420010C94200178
S11300800C9420010C9420010C9420010C94200168
S11300900C9420010C9420010C9420010C94200158
S11300A00C9420010C9420010C9420010C94200148
S11300B00C9420010C9420010C9420010C94200138
S11300C00C9420010C9420010C9420010C94200128
S11300D00C9420010C9420010C9420010C94200118
S11300E00C9420010C9420010C9420010C94200108
S11300F00C9420010C9420010C9420010C942001F8
S11301000C9420010C9420010C9420010C942001E7
S11301100C9420010C9420010C9420010C942001D7
S11301200C9420010C9420010C9420010C942001C7
S11301300C9420010C9420010C9420010C942001B7
S11301400C9420010C9420010C9420010C942001A7
S11301500C9420010C9420010C9420010C94200197
S11301600C9420010C9420010C9420010C94200187
S11301700C9420010C9420010C9420010C94200177
S11301800C9420010C9420010C9420010C94200167
S11301900C9420010C9420010C9420010C94200157
S11301A00C9420010C9420010C9420010C94200147
S11301B00C9420010C9420010C9420010C94200137
S11301C00C9420010C9420010C9420010C94200127
S11301D00C9420010C9420010C9420010C94200117
S11301E00C9420010C9420010C9420010C94200107
S11301F00C94200111241FBECFEFDFE3DEBFCDBF7F
S113020000E00CBF18BE19BE1ABE1BBE10E2A0E06F
S1130210B0E2EEEEF7E000E00BBF02C007900D92F3
S1130220A830B107D9F71BBE20E2A8E0B0E201C0B4
S11302301D92AD3EB207E1F70E94AA030C94F503A8
S11302400C940000AF92CF92EF920F93FC01608365
S11302507183428353831482CC2011F090E801C04F
S113026090E0222311F080E201C080E000650A29B9
S1130270092B082BDB010C93A081B1811196EC9220
S1130280158216820280F381E02D80EA81830F912A
S1130290EF90CF90AF900895AF92CF92EF920F93DB
S11302A0E0EAF6E080E1818398E3948B85830F2E66
S11302B0F3E0AF2EF02DC12CE12C00E020E040EA69
S11302C056E060EC7BE08CE190E20E9422010F9109
S11302D0EF90CF90AF900895E0ECFBE083838281B0
S11302E08823ECF7E0ECFBE083810895FF920F9301
S11302F01F93CF93DF9300EA16E06894FF24F4F889
S1130300F801F68280E00E946C0182E60E946C0192
S1130310F0911A20DF2F80E0C82F0E946C01C80FD3
S1130320D11DC0931A20D0931B2080E00E946C0141
S1130330DC2FCC27C80FD11DC0931A20D0931B20CB
S1130340E0911820DE2FF0E0CF2F80E00E946C01B6
S1130350C80FD11DC0931820D093192083E60E94A2
S11303606C01DC2FCC27C80FD11DC0931820D0936B
S113037019208091B520D82FE0E0CE2F80E00E9494
S11303806C01C80FD11DC093B520D093B62080E076
S11303900E946C01DC2FCC27C80FD11DC093B5205F
S11303A0D093B62080E00E946C0180E00E946C0132
S11303B0F801F58240911A2050911B209A01A7E17F
S11303C0B8E60E94E903481B590B56954795840FDC
S11303D0951F0024880F991F001C880F991F001C6B
S11303E0892F902D80931A2090931B2040911820E0
S11303F0509119209A010E94E903481B590B569504
S11304004795840F951F0024880F991F001C880F9F
S1130410991F001C892F902D8093182090931920E8
S11304204091B5205091B6209A010E94E903481BDF
S1130430590B56954795840F951F0024880F991FD3
S1130440001C880F991F001C892F902D8093B520C4
S11304509093B620DF91CF911F910F91FF90089553
S1130460FC012081207F622B60830895E0E0F8E0A6
S113047083E080838183828383838181806181831C
S113048081818062818381818064818381818068AC
S113049081838FE0A0E4B6E011968C9310AE11AE88
S11304A012AE13AE14AE15AE10923E0810923F0871
S11304B089E298E686A397A363E080E098E00E942F
S11304C030020895FC0120812068208308958F92D2
S11304D0AF92BF92CF92EF920F931F93CF93DF937C
S11304E0CDB7DEB7FC016087718712860487158754
S11304F01686422BE42ACE28C282A482B582808149
S11305008C7D88299E85992329F0806280838D853E
S1130510868301C08083DF91CF911F910F91EF906B
S1130520CF90BF90AF908F900895FC0120812460FC
S113053020830895FC016383089580910E208F3FEA
S113054009F045C080910F208D3F09F040C0E3E9D8
S1130550F0E2908180E020911020820F911D982F6D
S1130560882720911120820F911D80839183E9ECCB
S1130570F0E2908180E020911220820F911D982F4B
S1130580882720911320820F911D80839183E5E6B3
S1130590F0E2908180E020911420820F911D982F29
S11305A0882720911520820F911D80839183E5E394
S11305B0F0E2908180E020911620820F911D982F07
S11305C0882720911720820F911D8083918308959D
S11305D0CF93DF93EC018981807321F00E949D0207
S11305E080E38983DF91CF910895E0EBF9E0918175
S11305F095FFFDCF8093B0090895CF93C82F892F1D
S11306000E94F5028C2F0E94F502CF9108958EEF7F
S11306109FEF0E94FD028091B5209091B6200E9428
S1130620FD0280911820909119200E94FD02809172
S11306301A2090911B200E94FD020895E0E5F0E04D
S1130640808182608083818181FFFDCF88ED84BFBA
S113065081E0809340000895E0E6F6E090E4928320
S113066080E88183E0E4F6E092838183E0EBF9E0C3
S11306708BE0858387E1868384EA87838481806134
S1130680848384818860848308951092BF201092AB
S1130690C0201092C1201092C2201092C320109248
S11306A0C42084E690E080935B2090935C20809348
S11306B05D2090935E2080935F2090936020109241
S11306C02B2010922C2010922D2010922E2010926C
S11306D02F20109230208093252090932620809301
S11306E02720909328208093292090932A200895EE
S11306F08F92AF92BF92CF92EF920F931F9381E0AC
S11307008F931F92812C0F2EFAE0AF2EB12CF02D77
S1130710CC24C3946894EE24E2F80EE010E220E0C6
S113072040E060EB79E080E291E00E94670280E2C1
S113073091E00E9495026EE680E291E00E949A02A6
S11307400F900F901F910F91EF90CF90BF90AF90AB
S11307508F9008958FEFE0E0F6E081830E941E03FE
S11307600E942C030E944C010E9445030E94360201
S11307700E941E030E942C03E0E0F1E08081806867
S113078080830E94780380E291E00E946202C0E0CC
S1130790D6E01FEF8FE39CE90197F1F700C000005A
S11307A00E9476011F8380E291E00E94E80280911A
S11307B0E7209091E82001968093E7209093E82029
S11307C00F9744F30E9407031092E7201092E82049
S11307D0E1CFA29FB001B39FC001A39F01D0B29FFC
S11107E0700D811D1124911D0895F894FFCF12
S10B07EE01FFFFFFFFA006005C
S9030000FC
