S0100000554D365F746573742E737265631D
S11300000C94FA000C9420010C9420010C9420010F
S11300100C9420010C9420010C9420010C942001D8
S11300200C9420010C9420010C9420010C942001C8
S11300300C9420010C9420010C9420010C942001B8
S11300400C9420010C9420010C9420010C942001A8
S11300500C9420010C9420010C9420010C94200198
S11300600C9420010C9420010C9420010C94200188
S11300700C9420010C9420010C9420010C94200178
S11300800C9420010C9420010C9420010C94200168
S11300900C9420010C9420010C9420010C94200158
S11300A00C9420010C9420010C9420010C94200148
S11300B00C9420010C9420010C9420010C94200138
S11300C00C9420010C9420010C9420010C94200128
S11300D00C9420010C9420010C9420010C94200118
S11300E00C9420010C9420010C9420010C94200108
S11300F00C9420010C9420010C9420010C942001F8
S11301000C9420010C9420010C9420010C942001E7
S11301100C9420010C9420010C9420010C942001D7
S11301200C9420010C9420010C9420010C942001C7
S11301300C9420010C9420010C9420010C942001B7
S11301400C9420010C9420010C9420010C942001A7
S11301500C9420010C9420010C9420010C94200197
S11301600C9420010C9420010C9420010C94200187
S11301700C9420010C9420010C9420010C94200177
S11301800C9420010C9420010C9420010C94200167
S11301900C9420010C9420010C9420010C94200157
S11301A00C9420010C9420010C9420010C94200147
S11301B00C9420010C9420010C9420010C94200137
S11301C00C9420010C9420010C9420010C94200127
S11301D00C9420010C9420010C9420010C94200117
S11301E00C9420010C9420010C9420010C94200107
S11301F00C94200111241FBECFEFDFE3DEBFCDBF7F
S113020000E00CBF18BE19BE1ABE1BBE10E2A0E06F
S1130210B0E2ECE9F8E000E00BBF02C007900D92F9
S1130220A830B107D9F71BBE20E2A8E0B0E201C0B4
S11302301D92A33FB207E1F70E9405040C944C04FD
S11302400C940000FC018089918924853585821BEA
S1130250930B868B978B46815781849F9001859F52
S1130260300D949F300D11242093B7203093B82083
S11302706685778542855385649FC001659F900D8F
S1130280749F900D11248093BD209093BE20820F03
S1130290931F8093292090932A20828B938B089517
S11302A0AF92CF92EF920F93FC01608371834283EC
S11302B053831482CC2011F090E801C090E02223F3
S11302C011F080E201C080E000650A29092B082BA7
S11302D0DB010C93A081B1811196EC9215821682F8
S11302E00280F381E02D80EA81830F91EF90CF901B
S11302F0AF900895AF92CF92EF920F93E0EAF6E0B9
S113030080E1818398E3948B85830F2EF3E0AF2EF5
S1130310F02DC12CE12C00E020E040EA56E060EC36
S11303207BE082E290E20E9450010F91EF90CF9027
S1130330AF900895E0ECFBE0838382818823ECF79F
S1130340E0ECFBE083810895FC012081207F622B97
S113035060830895E0E0F8E083E080838183828312
S113036083838181806181838181806281838181B2
S1130370806481838181806881838FE0A0E4B6E01A
S113038011968C9310AE11AE12AE13AE14AE15AE20
S113039010923E0810923F0889E298E686A397A33C
S11303A063E080E098E00E94A4010895E0E0F8E0B2
S11303B0E485E0FF0EC0E0E0F8E0A1E0A48780AFB0
S11303C091AF62AF73AF44AF55AF20933E08309303
S11303D03F080895FC0120812068208308958F92AE
S11303E0AF92BF92CF92EF920F931F93CF93DF936D
S11303F0CDB7DEB7FC016087718712860487158745
S11304001686422BE42ACE28C282A482B582808139
S11304108C7D88299E85992329F0806280838D852F
S1130420868301C08083DF91CF911F910F91EF905C
S1130430CF90BF90AF908F900895FC0120812460ED
S113044020830895FC0163830895809199209091FD
S11304509A209C01215D37402F323840C8F4880F20
S1130460991F880F991F60913D2070913E20E09163
S11304706D20F0916E209C01261B370BAC014E1BA6
S11304805F0B680F791F8E0F9F1F0E94D60108957E
S113049020E030E040E050E060E070E080E090E098
S11304A00E94D601089580910E208F3F09F075C0F7
S11304B080910F208D3F09F070C0E9E9F0E290814E
S11304C080E020911020820F911D982F8827209181
S11304D01120820F911D80839183EFECF0E29081D3
S11304E080E020911220820F911D982F882720915F
S11304F01320820F911D80839183EBE6F0E29081BB
S113050080E020911420820F911D982F882720913C
S11305101520820F911D80839183EBE3F0E290819B
S113052080E020911620820F911D982F882720911A
S11305301720820F911D80839183E1E3F0E2908183
S113054080E020911820820F911D982F88272091F8
S11305501920820F911D80839183E3E3F0E290815F
S113056080E020911A20820F911D982F88272091D6
S11305701B20820F911D80839183E5E3F0E290813B
S113058080E020911C20820F911D982F88272091B4
S11305901D20820F911D808391830895DF92EF9235
S11305A0FF920F931F93CF93DF930F2EF0EAEF2E5A
S11305B0F6E0FF2EF02D6894DD24D4F8F701D682FE
S11305C080E00E949A0182E60E949A01C7E3D0E289
S11305D0188100E080E00E949A01080F111D088331
S11305E0198380E00E949A01102F0027080F111D23
S11305F008831983C7E6D0E2188100E080E00E94F6
S11306009A01080F111D0883198383E60E949A0139
S1130610102F0027080F111D08831983CBECD0E29B
S1130620188100E080E00E949A01080F111D0883E0
S1130630198380E00E949A01102F0027080F111DD2
S11306400883198380E00E949A0180E00E949A0145
S1130650F701D582DF91CF911F910F91FF90EF9019
S1130660DF900895CF93DF93EC018981807321F0AB
S11306700E94530280E38983DF91CF910895E0EBD8
S1130680F9E0918195FFFDCF8093B0090895CF9350
S1130690C82F892F0E943F038C2F0E943F03CF91C4
S11306A008958EEF9FEF0E9447038091CB20909195
S11306B0CC200E94470380916720909168200E947B
S11306C0470380913720909138200E9447038091FE
S11306D03D2090913E200E944703809141209091BB
S11306E042200E94470380913B2090913C200E942D
S11306F047030895E0E5F0E0808182608083818192
S113070081FFFDCF88ED84BF81E080934000089590
S1130710E0E6F6E090E4928380E88183E0E4F6E0AA
S113072092838183E0EBF9E08BE0858387E1868324
S113073084EA87838481806184838481886084835C
S113074008951092C5201092C6201092C7201092CE
S1130750C8201092C9201092CA2084E690E08093A9
S1130760612090936220809363209093642080930F
S113077065209093662010923120109232201092BE
S1130780332010923420109235201092362080931A
S11307902B2090932C2080932D2090932E208093B7
S11307A02F209093302008958F92AF92BF92CF92D2
S11307B0EF920F931F9381E08F931F92812C689483
S11307C0AA24A4F8B12CCC24C3946894EE24E2F8AF
S11307D00EE010E220E040E060EB79E080E291E09E
S11307E00E94EF0180E291E00E941D026EE680E229
S11307F091E00E9422020F900F901F910F91EF90B1
S1130800CF90BF90AF908F9008958FEFE0E0F6E027
S113081081830E947A030E9488030E947A010E94C5
S1130820A1030E94AA010E947A030E948803E0E0C7
S1130830F1E08081806880830E94D40380E291E0AB
S11308400E94EA018FE79EE30197F1F700C00000E0
S11308504FEB50E26BE570E28BE290E20E94CE0235
S113086080E291E00E9432038BE290E20E94220136
S11308700E9425028091ED209091EE2001968093B4
S1130880ED209093EE200A97ECF20E94510310920F
S10F0890ED201092EE20D6CFF894FFCF9C
S10B089C01FFFFFFFFA00600AD
S9030000FC
