S0100000554D365F746573742E737265631D
S11300000C94FA000C9420010C9420010C9420010F
S11300100C9420010C9420010C9420010C942001D8
S11300200C9420010C9420010C9420010C942001C8
S11300300C9420010C9420010C9420010C942001B8
S11300400C9420010C9420010C9420010C942001A8
S11300500C9420010C9420010C9420010C94200198
S11300600C9420010C9420010C9420010C94200188
S11300700C9420010C9420010C9420010C94200178
S11300800C9420010C9420010C9420010C94200168
S11300900C9420010C9420010C9420010C94200158
S11300A00C9420010C9420010C9420010C94200148
S11300B00C9420010C9420010C9420010C94200138
S11300C00C9420010C9420010C9420010C94200128
S11300D00C9420010C9420010C9420010C94200118
S11300E00C9420010C9420010C9420010C94200108
S11300F00C9420010C9420010C9420010C942001F8
S11301000C9420010C9420010C9420010C942001E7
S11301100C9420010C9420010C9420010C942001D7
S11301200C9420010C9420010C9420010C942001C7
S11301300C9420010C9468030C9420010C9420016D
S11301400C9420010C9420010C9420010C942001A7
S11301500C9420010C9420010C9420010C94200197
S11301600C9420010C9420010C9420010C94200187
S11301700C9420010C9420010C9420010C94200177
S11301800C9420010C9420010C9420010C94200167
S11301900C9420010C9420010C9420010C94200157
S11301A00C9420010C9420010C9420010C94200147
S11301B00C9420010C9420010C9420010C94200137
S11301C00C9420010C9420010C9420010C94200127
S11301D00C9420010C9420010C9420010C94200117
S11301E00C9420010C9420010C9420010C94200107
S11301F00C94200111241FBECFEFDFE3DEBFCDBF7F
S113020000E00CBF18BE19BE1ABE1BBE10E2A0E06F
S1130210B0E2E2E4F7E000E00BBF02C007900D9209
S1130220AA30B107D9F71BBE21E2AAE0B0E201C0AF
S11302301D92AF30B207E1F70E943B030C949F0379
S11302400C940000AF92CF92EF920F93FC01608365
S11302507183428353831482CC2011F090E801C04F
S113026090E0222311F080E201C080E000650A29B9
S1130270092B082BDB010C93A081B1811196EC9220
S1130280158216820280F381E02D80EA81830F912A
S1130290EF90CF90AF900895AF92CF92EF920F93DB
S11302A0CF93DF93E0EAF6E0C0E1C183D8E3D48BD7
S11302B0C5830F2EF3E0AF2EF02DC12CE12C00E00E
S11302C020E040EA56E060EC7BE08EE090E20E94A1
S11302D02201E0E8F6E0C183D48BC5836894AA24A4
S11302E0A1F820E040E856E060EC7AE080ED90E28E
S11302F00E942201DF91CF910F91EF90CF90AF90A8
S11303000895E0ECFBE0838382818823ECF7E0EC42
S1130310FBE083810895E0ECFAE083838281882303
S1130320ECF7E0ECFAE08381089581E00E9481011A
S11303308CEA0E948101089581E00E9481018FEA84
S11303400E9481010895FC012081207F622B60833B
S11303500895E0E0F8E083E08083818382838383EF
S113036081818061818381818062818381818064D4
S113037081838181806881838FE0A0E4B6E0119657
S11303808C9310AE11AE12AE13AE14AE15AE109225
S11303903E0810923F0889E298E686A397A363E09B
S11303A080E098E00E94A30108950F931F93CF93D8
S11303B0DF93C0EAD6E010E11E8380E00E94810151
S11303C082E60E94810180E00E948101082F80E082
S11303D00E948101302F20E0282B2093232030938A
S11303E0242080E00E948101082F83E60E9481017D
S11303F0302F20E0282B209356203093572080E084
S11304000E948101082F80E00E948101302F20E0AA
S1130410282B2093E5203093E62080E00E94810180
S113042080E00E9481011D83DF91CF911F910F9184
S11304300895AF92BF92DF92EF92FF920F931F93B2
S1130440CF93DF9300E816E06894DD24D4F8F80134
S1130450D68280E090E1A0E0B0E08093B820909351
S1130460B920A093BA20B093BB200F2EF8EAEF2E48
S1130470F0E2FF2EF02DF70181810E948B01D82F2D
S1130480F0E0CF2FF701C083D18380E00E948B017D
S1130490C80FD11DF701C083D1830F2EF3E2AF2E15
S11304A0F0E2BF2EF02DF50181810E948B01D82F3F
S11304B0F0E0CF2F0F2EF7E2EF2EF0E2FF2EF02D1B
S11304C0F701C083D183F50180810E948B01C80F9D
S11304D0D11DF701C083D1830F2EF6E5AF2EF0E2D4
S11304E0BF2EF02DF50181810E948B01D82FF0E001
S11304F0CF2F0F2EFAE5EF2EF0E2FF2EF02DF701AD
S1130500C083D183F50180810E948B01C80FD11D66
S1130510F701C083D1830F2EF5EEAF2EF0E2BF2E8C
S1130520F02DF50181810E948B01D82FF0E0CF2FAF
S11305300F2EF9EEEF2EF0E2FF2EF02DF701C0831F
S1130540D183F50180810E948B01C80FD11DF70171
S1130550C083D1838CEC0E948B018CEC0E948B01B4
S1130560F801D582DF91CF911F910F91FF90EF9009
S1130570DF90BF90AF9008950E94D501809109212A
S113058090910A2101968093092190930A214E9714
S113059034F00E9419021092092110920A21089540
S11305A0E0E5F0E0808182608083818181FFFDCF7E
S11305B088ED84BF81E0809340000895E0E6F6E092
S11305C090E4928380E88183E0E4F6E0928381837F
S11305D0E0EBF9E08BE0858387E1868384EA878317
S11305E084818061848384818860848308951092E7
S11305F0DF201092E0201092E1201092E22010926D
S1130600E3201092E42084E690E0809350209093BD
S113061051208093522090935320809354209093A0
S1130620552010921D2010921E2010921F2010920F
S11306302020109221201092222080931720909342
S113064018208093192090931A2080931B20909354
S11306501C200895E0E0F9E083E0808311828FE9B3
S113066092E986A397A381E08683E0EAF0E08281A1
S11306708160828308958FEFE0E0F6E081830E9439
S1130680D0020E94DE020E944C010E94F7020E94E6
S1130690A9010E94DE020E9495012FEF37EA81E64C
S11306A0215030408040E1F700C000000E949C01CE
S11306B09FEF23E234EF80E09150204030408040AF
S11306C0D9F700C000000E942A0378940000FECFEE
S11306D01F920F920FB60F92112408B60F9218BEF4
S11306E009B60F9219BE0BB60F921BBE2F933F9300
S11306F04F935F936F937F938F939F93AF93BF9326
S1130700EF93FF930E94BC02E0E0F9E010A211A273
S1130710FF91EF91BF91AF919F918F917F916F91D5
S11307205F914F913F912F910F900BBE0F9009BE97
S11307300F9008BE0F900FBE0F901F901895F8945D
S1050740FFCFE5
S10D074201FFFFFFFF8006A0060080
S9030000FC
