S0100000554D365F746573742E737265631D
S11300000C94FA000C9420010C9420010C9420010F
S11300100C9420010C9420010C9420010C942001D8
S11300200C9420010C9420010C9420010C942001C8
S11300300C9420010C9420010C9420010C942001B8
S11300400C9420010C9420010C9420010C942001A8
S11300500C9420010C9420010C9420010C94200198
S11300600C9420010C9420010C9420010C94200188
S11300700C9420010C9420010C9420010C94200178
S11300800C9420010C9420010C9420010C94200168
S11300900C9420010C9420010C9420010C94200158
S11300A00C9420010C9420010C9420010C94200148
S11300B00C9420010C9420010C9420010C94200138
S11300C00C9420010C9420010C9420010C94200128
S11300D00C9420010C9420010C9420010C94200118
S11300E00C9420010C9420010C9420010C94200108
S11300F00C9420010C9420010C9420010C942001F8
S11301000C9420010C9420010C9420010C942001E7
S11301100C9420010C9420010C9420010C942001D7
S11301200C9420010C9420010C9420010C942001C7
S11301300C9420010C943C030C9420010C94200199
S11301400C9420010C9420010C9420010C942001A7
S11301500C9420010C9420010C9420010C94200197
S11301600C9420010C9420010C9420010C94200187
S11301700C9420010C9420010C9420010C94200177
S11301800C9420010C9420010C9420010C94200167
S11301900C9420010C9420010C9420010C94200157
S11301A00C9420010C9420010C9420010C94200147
S11301B00C9420010C9420010C9420010C94200137
S11301C00C9420010C9420010C9420010C94200127
S11301D00C9420010C9420010C9420010C94200117
S11301E00C9420010C9420010C9420010C94200107
S11301F00C94200111241FBECFEFDFE3DEBFCDBF7F
S113020000E00CBF18BE19BE1ABE1BBE10E2A0E06F
S1130210B0E2EAEEF6E000E00BBF02C007900D92F8
S1130220AA30B107D9F71BBE20E2AAE0B0E201C0B0
S11302301D92A73EB207E1F70E940F030C947303CB
S11302400C940000AF92CF92EF920F93FC01608365
S11302507183428353831482CC2011F090E801C04F
S113026090E0222311F080E201C080E000650A29B9
S1130270092B082BDB010C93A081B1811196EC9220
S1130280158216820280F381E02D80EA81830F912A
S1130290EF90CF90AF900895AF92CF92EF920F93DB
S11302A0CF93DF93E0EAF6E0C0E1C183D8E3D48BD7
S11302B0C5830F2EF3E0AF2EF02DC12CE12C00E00E
S11302C020E040EA56E060EC7BE08EE090E20E94A1
S11302D02201E0E8F6E0C183D48BC58320E040E846
S11302E056E060EC7AE08AEA90E20E942201DF9113
S11302F0CF910F91EF90CF90AF900895E0ECFBE099
S1130300838382818823ECF7E0ECFBE0838108950A
S1130310E0ECFAE0838382818823ECF7E0ECFAE0F6
S11303208381089581E00E947E018CEA0E947E010F
S1130330089581E00E947E018FEA0E947E01089563
S1130340FC012081207F622B60830895E0E0F8E0C7
S113035083E080838183828383838181806181833D
S113036081818062818381818064818381818068CD
S113037081838FE0A0E4B6E011968C9310AE11AEA9
S113038012AE13AE14AE15AE10923E0810923F0892
S113039089E298E686A397A363E080E098E00E9450
S11303A0A00108950F931F93CF93DF93C0EAD6E083
S11303B010E11E8380E00E947E0182E60E947E019D
S11303C080E00E947E01082F80E00E947E01302F91
S11303D020E0282B209323203093242080E00E94C7
S11303E07E01082F83E60E947E01302F20E0282B17
S11303F0209354203093552080E00E947E01082FE2
S113040080E00E947E01302F20E0282B2093BF2023
S11304103093C02080E00E947E0180E00E947E0133
S11304201D83DF91CF911F910F910895BF92CF92B9
S1130430DF92EF92FF920F931F93CF93DF930F2ED0
S1130440F0E8EF2EF6E0FF2EF02D6894BB24B4F80C
S1130450F701B682C7E2D0E2188100E00F2EF3E282
S1130460CF2EF0E2DF2EF02DF60181810E9488016B
S1130470080F111D08831983F60180810E948801E9
S1130480102F0027080F111D08831983C8E5D0E237
S1130490188100E00F2EF4E5CF2EF0E2DF2EF02DD0
S11304A0F60181810E948801080F111D08831983B8
S11304B0F60180810E948801102F0027080F111D6A
S11304C008831983C3ECD0E2188100E00F2EFFEB00
S11304D0CF2EF0E2DF2EF02DF60181810E948801FB
S11304E0080F111D08831983F60180810E94880179
S11304F0102F0027080F111D088319838CEC0E940C
S113050088018CEC0E948801F701B582DF91CF91BC
S11305101F910F91FF90EF90DF90CF90BF900895BF
S11305200E94D2018091E1209091E2200196809373
S1130530E1209093E2200A9734F00E941602109270
S1130540E1201092E2200895E0E5F0E080818260ED
S11305508083818181FFFDCF88ED84BF81E080931A
S113056040000895E0E6F6E090E4928380E8818319
S1130570E0E4F6E092838183E0EBF9E08BE08583AD
S113058087E1868384EA878384818061848384818C
S11305908860848308951092B9201092BA20109232
S11305A0BB201092BC201092BD201092BE2084E685
S11305B090E080934E2090934F208093502090930E
S11305C05120809352209093532010921D2010921A
S11305D01E2010921F201092202010922120109291
S11305E022208093172090931820809319209093B1
S11305F01A2080931B2090931C200895E0E0F9E0DA
S113060083E08083118280E09DE786A397A381E045
S11306108683E0EAF0E082818160828308958FEF2F
S1130620E0E0F6E081830E94A4020E94B2020E94EC
S11306304C010E94CB020E94A6010E94B2020E94B9
S113064092012FEF37EA81E6215030408040E1F7F4
S113065000C000000E9499019FEF23E234EF80E084
S11306609150204030408040D9F700C000000E94E3
S1130670FE0278940000FECF1F920F920FB60F92E5
S1130680112408B60F9218BE09B60F9219BE0BB604
S11306900F921BBE2F933F934F935F936F937F9360
S11306A08F939F93AF93BF93EF93FF930E94900216
S11306B0E0E0F9E010A211A2FF91EF91BF91AF9198
S11306C09F918F917F916F915F914F913F912F9166
S11306D00F900BBE0F9009BE0F9008BE0F900FBE77
S10D06E00F901F901895F894FFCFB7
S10D06EA01FFFFFFFF8006A00600D9
S9030000FC
