S0100000554D365F746573742E737265631D
S11300000C94FA000C9420010C9420010C9420010F
S11300100C9420010C9420010C9420010C942001D8
S11300200C9420010C9420010C9420010C942001C8
S11300300C9420010C9420010C9420010C942001B8
S11300400C9420010C9420010C9420010C942001A8
S11300500C9420010C9420010C9420010C94200198
S11300600C9420010C9420010C9420010C94200188
S11300700C9420010C9420010C9420010C94200178
S11300800C9420010C9420010C9420010C94200168
S11300900C9420010C9420010C9420010C94200158
S11300A00C9420010C9420010C9420010C94200148
S11300B00C9420010C9420010C9420010C94200138
S11300C00C9420010C9420010C9420010C94200128
S11300D00C9420010C9420010C9420010C94200118
S11300E00C9420010C9420010C9420010C94200108
S11300F00C9420010C9420010C9420010C942001F8
S11301000C9420010C9420010C9420010C942001E7
S11301100C9420010C9420010C9420010C942001D7
S11301200C9420010C9420010C9420010C942001C7
S11301300C9420010C94F7020C9420010C942001DF
S11301400C9420010C9420010C9420010C942001A7
S11301500C9420010C9420010C9420010C94200197
S11301600C9420010C9420010C9420010C94200187
S11301700C9420010C9420010C9420010C94200177
S11301800C9420010C9420010C9420010C94200167
S11301900C9420010C9420010C9420010C94200157
S11301A00C9420010C9420010C9420010C94200147
S11301B00C9420010C9420010C9420010C94200137
S11301C00C9420010C9420010C9420010C94200127
S11301D00C9420010C9420010C9420010C94200117
S11301E00C9420010C9420010C9420010C94200107
S11301F00C94200111241FBECFEFDFE3DEBFCDBF7F
S113020000E00CBF18BE19BE1ABE1BBE10E2A0E06F
S1130210B0E2E0E6F6E000E00BBF02C007900D920A
S1130220AA30B107D9F71BBE20E2AAE0B0E201C0B0
S11302301D92A73EB207E1F70E94CA020C942E0356
S11302400C940000AF92CF92EF920F93FC01608365
S11302507183428353831482CC2011F090E801C04F
S113026090E0222311F080E201C080E000650A29B9
S1130270092B082BDB010C93A081B1811196EC9220
S1130280158216820280F381E02D80EA81830F912A
S1130290EF90CF90AF900895AF92CF92EF920F93DB
S11302A0CF93DF93E0EAF6E0C0E1C183D8E3D48BD7
S11302B0C5836894AA24A1F8C12CE12C00E020E0B5
S11302C040EA56E060EC7BE08EE090E20E9422017E
S11302D0E0E8F6E0C183D48BC58320E040E856E033
S11302E060EC7AE08AEA90E20E942201DF91CF91E9
S11302F00F91EF90CF90AF900895E0ECFBE08383F3
S113030082818823ECF7E0ECFBE083810895E0EC44
S1130310FAE0838382818823ECF7E0ECFAE08381BE
S1130320089581E00E947D018CEA0E947D01089578
S113033081E00E947D018FEA0E947D010895FC0105
S11303402081207F622B60830895E0E0F8E083E061
S1130350808381838283838381818061818381819E
S113036080628183818180648183818180688183CB
S11303708FE0A0E4B6E011968C9310AE11AE12AEED
S113038013AE14AE15AE10923E0810923F0889E2E7
S113039098E686A397A363E080E098E00E949F011B
S11303A008950F931F93CF93DF93C0EAD6E010E133
S11303B01E8380E00E947D0182E60E947D0180E030
S11303C00E947D01082F80E00E947D01302F20E0F3
S11303D0282B209323203093242080E00E947D0149
S11303E0082F83E60E947D01302F20E0282B2093E4
S11303F054203093552080E00E947D01082F80E036
S11304000E947D01302F20E0282B2093BF203093C1
S1130410C02080E00E947D0180E00E947D011D8358
S1130420DF91CF911F910F910895FF920F931F9326
S1130430CF93DF93C0E8D6E06894FF24F4F8FE82FB
S113044003E210E2F80181810E948701F8018081B2
S11304500E94870104E510E2F80181810E9487016E
S1130460F80180810E9487010FEB10E2F80181817D
S11304700E948701F80180810E9487018CEC0E9410
S113048087018CEC0E948701FD82DF91CF911F913F
S11304900F91FF9008950E94D1018091E1209091E5
S11304A0E22001968093E1209093E220079734F0B4
S11304B00E9415021092E1201092E2200895E0E5D6
S11304C0F0E0808182608083818181FFFDCF88EDAF
S11304D084BF81E0809340000895E0E6F6E090E474
S11304E0928380E88183E0E4F6E092838183E0EB09
S11304F0F9E08BE0858387E1868384EA87838481BE
S11305008061848384818860848308951092B920F3
S11305101092BA201092BB201092BC201092BD20E1
S11305201092BE2084E690E080934E2090934F205A
S11305308093502090935120809352209093532085
S113054010921D2010921E2010921F201092202025
S1130550109221201092222080931720909318202B
S11305608093192090931A2080931B2090931C2031
S11305700895E0E0F9E083E0808311828FE992E955
S113058086A397A381E08683E0EAF0E0828181601C
S1130590828308958FEFE0E0F6E081830E945F029A
S11305A00E946D020E944C010E9486020E94A501D5
S11305B00E946D020E9491012FEF37EA81E62150DB
S11305C030408040E1F700C000000E9498019FEF96
S11305D023E234EF80E09150204030408040D9F74E
S11305E000C000000E94B90278940000FECF1F9260
S11305F00F920FB60F92112408B60F9218BE09B6C7
S11306000F9219BE0BB60F921BBE2F933F934F93BD
S11306105F936F937F938F939F93AF93BF93EF9366
S1130620FF930E944B02E0E0F9E010A211A2FF91B7
S1130630EF91BF91AF919F918F917F916F915F9156
S11306404F913F912F910F900BBE0F9009BE0F90C9
S113065008BE0F900FBE0F901F901895F894FFCF0F
S10D066001FFFFFFFF8006A0060063
S9030000FC
