:100000000C94FA000C9420010C9420010C94200113
:100010000C9420010C9420010C9420010C942001DC
:100020000C9420010C9420010C9420010C942001CC
:100030000C9420010C9420010C9420010C942001BC
:100040000C9420010C9420010C9420010C942001AC
:100050000C9420010C9420010C9420010C9420019C
:100060000C9420010C9420010C9420010C9420018C
:100070000C9420010C9420010C9420010C9420017C
:100080000C9420010C9420010C9420010C9420016C
:100090000C9420010C9420010C9420010C9420015C
:1000A0000C9420010C9420010C9420010C9420014C
:1000B0000C9420010C9420010C9420010C9420013C
:1000C0000C9420010C9420010C9420010C9420012C
:1000D0000C9420010C9420010C9420010C9420011C
:1000E0000C9420010C9420010C9420010C9420010C
:1000F0000C9420010C9420010C9420010C942001FC
:100100000C9420010C9420010C9420010C942001EB
:100110000C9420010C9420010C9420010C942001DB
:100120000C9420010C9420010C9420010C942001CB
:100130000C9420010C9420010C9420010C942001BB
:100140000C9420010C9420010C9420010C942001AB
:100150000C9420010C9420010C9420010C9420019B
:100160000C9420010C9420010C9420010C9420018B
:100170000C9420010C9420010C9420010C9420017B
:100180000C9420010C9420010C9420010C9420016B
:100190000C9420010C9420010C9420010C9420015B
:1001A0000C9420010C9420010C9420010C9420014B
:1001B0000C9420010C9420010C9420010C9420013B
:1001C0000C9420010C9420010C9420010C9420012B
:1001D0000C9420010C9420010C9420010C9420011B
:1001E0000C9420010C9420010C9420010C9420010B
:1001F0000C94200111241FBECFEFDFE3DEBFCDBF83
:1002000000E00CBF18BE19BE1ABE1BBE10E2A0E073
:10021000B0E2E6E6F4E000E00BBF02C007900D920A
:10022000A830B107D9F71BBE20E2A8E0B0E201C0B8
:100230001D92A531B207E1F70E9408020C94310229
:100240000C940000AF92CF92EF920F93FC01608369
:100250007183428353831482CC2011F090E801C053
:1002600090E0222311F080E201C080E000650A29BD
:10027000092B082BDB010C93A081B1811196EC9224
:10028000158216820280F381E02D80EA81830F912E
:10029000EF90CF90AF900895AF92CF92EF920F93DF
:1002A000E0EAF6E080E1818398E3948B85830F2E6A
:1002B000F3E0AF2EF02DC12CE12C00E020E040EA6D
:1002C00056E060EC7BE088E090E20E9422010F9112
:1002D000EF90CF90AF900895E0ECFBE083838281B4
:1002E0008823ECF7E0ECFBE083810895FF920F9305
:1002F0001F93CF93DF9300EA16E06894FF24F4F88D
:10030000F801F68280E00E946C0183E60E946C0195
:10031000F0910F20DF2F80E0C82F0E946C01C80FE2
:10032000D11DC0930F20D093102080E00E946C015B
:10033000DC2FCC27C80FD11DC0930F20D0931020E5
:10034000E0911320DE2FF0E0CF2F80E00E946C01BF
:10035000C80FD11DC0931320D093142080E00E94B9
:100360006C01F801F58220910F2030911020319519
:100370002195310920930F2030931020DC2FCC27BA
:10038000C80FD11DD195C195D109C0931320D09329
:100390001420DF91CF911F910F91FF900895E0EB12
:1003A000F9E0918195FFFDCF8093B0090895CF9337
:1003B000C82F892F0E94CF018C2F0E94CF01CF918F
:1003C0000895E0E5F0E0808182608083818181FF93
:1003D000FDCF88ED84BF81E0809340000895E0E682
:1003E000F6E090E4928380E88183E0E4F6E0928393
:1003F0008183E0EBF9E08BE0858387E1868384EA03
:100400008783848180618483848188608483089564
:100410008FEFE0E0F6E081830E94E1010E94EF01AE
:100420000E944C018091112090911220019680939E
:100430001120909312202FEF87E893E12150804004
:100440009040E1F700C0000010921120109212209D
:100450000E94760180910F20909110200E94D70178
:06046000E1CFF894FFCF8C
:0804660001FFFFFFFFA00600EB
:00000001FF
