S0100000554D365F746573742E737265631D
S11300000C94FA000C9420010C9420010C9420010F
S11300100C9420010C9420010C9420010C942001D8
S11300200C9420010C9420010C9420010C942001C8
S11300300C9420010C9420010C9420010C942001B8
S11300400C9420010C9420010C9420010C942001A8
S11300500C9420010C9420010C9420010C94200198
S11300600C9420010C9420010C9420010C94200188
S11300700C9420010C9420010C9420010C94200178
S11300800C9420010C9420010C9420010C94200168
S11300900C9420010C9420010C9420010C94200158
S11300A00C9420010C9420010C9420010C94200148
S11300B00C9420010C9420010C9420010C94200138
S11300C00C9420010C9420010C9420010C94200128
S11300D00C9420010C9420010C9420010C94200118
S11300E00C9420010C9420010C9420010C94200108
S11300F00C9420010C9420010C9420010C942001F8
S11301000C9420010C9420010C9420010C942001E7
S11301100C9420010C9420010C9420010C942001D7
S11301200C9420010C9420010C9420010C942001C7
S11301300C9420010C94BB030C9420010C9420011A
S11301400C9420010C9420010C9420010C942001A7
S11301500C9420010C9420010C9420010C94200197
S11301600C9420010C9420010C9420010C94200187
S11301700C9420010C9420010C9420010C94200177
S11301800C9420010C9420010C9420010C94200167
S11301900C9420010C9420010C9420010C94200157
S11301A00C9420010C9420010C9420010C94200147
S11301B00C9420010C9420010C9420010C94200137
S11301C00C9420010C9420010C9420010C94200127
S11301D00C9420010C9420010C9420010C94200117
S11301E00C9420010C9420010C9420010C94200107
S11301F00C94200111241FBECFEFDFE3DEBFCDBF7F
S113020000E00CBF18BE19BE1ABE1BBE10E2A0E06F
S1130210B0E2E8EEF7E000E00BBF02C007900D92F9
S1130220AA30B107D9F71BBE21E2AAE0B0E201C0AF
S11302301D92A131B207E1F70E94B7030C94F203B7
S11302400C940000FC018089918924853585821BEA
S1130250930B868B978B46815781849F9001859F52
S1130260300D949F300D11242093AC203093AD2099
S11302706685778542855385649FC001659F900D8F
S1130280749F900D11248093D9209093DA20820FCB
S1130290931F8093162090931720828B938B08953D
S11302A0AF92CF92EF920F93FC01608371834283EC
S11302B053831482CC2011F090E801C090E02223F3
S11302C011F080E201C080E000650A29092B082BA7
S11302D0DB010C93A081B1811196EC9215821682F8
S11302E00280F381E02D80EA81830F91EF90CF901B
S11302F0AF900895AF92CF92EF920F93CF93DF9385
S1130300E0EAF6E0C0E1C183D8E3D48BC5830F2EC5
S1130310F3E0AF2EF02DC12CE12C00E020E040EA08
S113032056E060EC7BE08FE090E20E945001E0EC4C
S1130330FBE01382E0E8F6E0C183D48BC58320E0C0
S113034040E856E060EC7AE082ED90E20E945001D1
S1130350E0ECFAE01382DF91CF910F91EF90CF9010
S1130360AF900895E0ECFBE0838382818823ECF76F
S1130370E0ECFBE083810895E0ECFAE08383828182
S11303808823ECF780E48A95F1F7E0ECFAE08381C6
S1130390089581E00E94B2018CEA0E94B20108959E
S11303A081E00E94B2018FEA0E94B2010895FC012B
S11303B02081207F622B60830895E0E0F8E083E0F1
S11303C0808381838283838381818061818381812E
S11303D0806281838181806481838181806881835B
S11303E08FE0A0E4B6E011968C9310AE11AE12AE7D
S11303F013AE14AE15AE10923E0810923F0889E277
S113040098E686A397A363E080E098E00E94D70172
S11304100895E0E0F8E0E485E0FF0EC0E0E0F8E0F5
S1130420A1E0A48780AF91AF62AF73AF44AF55AF83
S113043020933E0830933F0808958091A92090911D
S1130440AA20880F991F880F991F20912820309186
S11304502920AC01421B530B820F931F9A01BC014C
S11304600E94090208950F931F93CF93DF93C0EA6C
S1130470D6E010E11E8380E00E94B20182E60E9471
S1130480B20180E00E94B201082F80E00E94B20114
S1130490302F20E0282B209324203093252080E047
S11304A00E94B201082F83E60E94B201302F20E09F
S11304B0282B209357203093582080E00E94B201CB
S11304C0082F80E00E94B201302F20E0282B2093D7
S11304D0E7203093E82080E00E94B20180E00E948F
S11304E0B2011D83DF91CF911F910F910895BF92A7
S11304F0CF92DF92EF92FF920F931F93CF93DF93EC
S11305000F2EF0E8EF2EF6E0FF2EF02D6894BB24BA
S1130510B4F8F701B68209EA10E2F80181810E9479
S1130520BC01D82FF0E0CF2FF801C083D18380E045
S11305300E94BC01C80FD11DF801C083D1830F2EC6
S1130540F4E2CF2EF0E2DF2EF02DF60181810E943D
S1130550BC01D82FF0E0CF2F08E210E2F801C083ED
S1130560D183F60180810E94BC01C80FD11DF8011E
S1130570C083D1830F2EF7E5CF2EF0E2DF2EF02DCE
S1130580F60181810E94BC01D82FF0E0CF2F0BE54A
S113059010E2F801C083D183F60180810E94BC017E
S11305A0C80FD11DF801C083D1830F2EF7EECF2ED3
S11305B0F0E2DF2EF02DF60181810E94BC01D82FDC
S11305C0F0E0CF2F0BEE10E2F801C083D183F601E7
S11305D080810E94BC01C80FD11DF801C083D18362
S11305E08CEC0E94BC0180930A208CEC0E94BC011C
S11305F08093AB20F701B582DF91CF911F910F91CA
S1130600FF90EF90DF90CF90BF9008950E94330247
S113061088E190E20E9422010E941D0280910B2138
S113062090910C21019680930B2190930C214E976D
S113063034F00E94770210920B2110920C2108953D
S1130640E0E5F0E0808182608083818181FFFDCFDD
S113065088ED84BF81E0809340000895E0E6F6E0F1
S113066090E4928380E88183E0E4F6E092838183DE
S1130670E0EBF9E08BE0858387E1868384EA878376
S11306808481806184838481886084830895109246
S1130690E1201092E2201092E3201092E4201092C4
S11306A0E5201092E62084E690E080935120909318
S11306B052208093532090935420809355209093FC
S11306C0562010921E2010921F201092202010926B
S11306D0212010922220109223208093182090939E
S11306E0192080931A2090931B2080931C209093B0
S11306F01D200895E0E0F9E083E0808311828FE912
S113070092E986A397A381E08683E0EAF0E0828100
S11307108160828308958FEFE0E0F6E0818378942E
S11307200E9420030E942E030E947A010E94470324
S11307300E94DD010E942E030E94C9012FEF37EAB7
S113074081E6215030408040E1F700C000000E9463
S1130750D0019FEF23E234EF80E0915020403040FD
S11307608040D9F700C000000E947A0308950E94D7
S11307708B030000FECF1F920F920FB60F9211242D
S113078008B60F9218BE09B60F9219BE0BB60F9297
S11307901BBE2F933F934F935F936F937F938F93DE
S11307A09F93AF93BF93EF93FF930E940603E0E000
S11307B0F9E010A211A2FF91EF91BF91AF919F9127
S11307C08F917F916F915F914F913F912F910F90F6
S11307D00BBE0F9009BE0F9008BE0F900FBE0F9076
S10B07E01F901895F894FFCF57
S10D07E801FFFFFFFF8006A00600DA
S9030000FC
